:020000040800F2
:1000000088460020890200089D5500083F410008ED
:100010009B550008B50A0008E969000800000000C7
:1000200000000000000000000000000095580008DB
:10003000730B0008000000002D58000897580008B6
:10004000A3020008A3020008A3020008A3020008FC
:10005000A3020008A3020008A3020008A3020008EC
:10006000A3020008A3020008A3020008B90A0008BE
:10007000C50A0008A3020008A3020008A3020008A2
:10008000A30200080000000021080008A3020008E5
:10009000A3020008A3020008A3020008A3020008AC
:1000A00015590008495900083D5900083159000800
:1000B000A3020008A3020008A3020008A30200088C
:1000C000A3020008A3020008A3020008A30200087C
:1000D000A3020008DD690008A3020008A3020008CB
:1000E000A3020008A3020008A3020008A30200085C
:1000F000A3020008A3020008A302000800000000F9
:1001000000000000A302000800000000A302000895
:10011000A302000800000000A3020008A3020008D8
:10012000A3020008A3020008A3020008A30200081B
:10013000A30200080000000000000000A302000865
:10014000A3020008A3020008000000000000000055
:10015000000000000000000000000000000000009F
:10016000000000000000000000000000A3020008E2
:10017000A3020008000000000000000000000000D2
:1001800000000000A30200080000000000000000C2
:10019000000000000000000000000000000000005F
:1001A0000000000000000000A3020008A3020008F5
:1001B0004D41000841410008A30200080000000072
:1001C00000000000A3020008000000000000000082
:1001D000A3020008A302000800F002F800F044F8AF
:1001E0000AA090E8000C82448344AAF10107DA4592
:1001F00001D100F039F8AFF2090EBAE80F0013F0A0
:10020000010F18BFFB1A43F001031847E07A000002
:10021000007B0000103A24BF78C878C1FAD8520792
:1002200024BF30C830C144BF04680C607047000070
:100230000023002400250026103A28BF78C1FBD8EF
:10024000520728BF30C148BF0B607047642900F0D7
:10025000F180752900F0EE80002070471FB507F08F
:100260006FF81FBD10B510BD00F0A3FA1146FFF7DF
:10027000F5FF06F0B1FD00F0C1FA03B4FFF7F2FF9D
:1002800003BC00F0C5FA0000094880470948004750
:10029000FEE7FEE7FEE7FEE7FEE7FEE7FEE7FEE736
:1002A000FEE7FEE704480549054A064B7047000093
:1002B00005590008D9010008884000208846002020
:1002C000884200208842002053EA020C00F0698036
:1002D0002DE9F04B4FF00006002B1FBFB3FA83F55A
:1002E00003FA05F424FA05F65E4012BF1643B2FA8B
:1002F00082F502FA05F4C5F120051EBF22FA05FCBD
:1003000044EA0C04203556EA044C4FEA144418BF62
:10031000641C4FF000084FF00009904271EB030C91
:1003200039D3002919BFB1FA81F701FA07F6B0FAFB
:1003300080F700FA07F6C7F120071EBF20FA07FC76
:1003400046EA0C062037B6FBF4FCA7EB0507103F86
:1003500007F01F0BCBF120060CFA0BFB2CFA06F66C
:1003600044BFB3460026202FA4BF5E464FF0000BCB
:100370005BEA060C08BF4FF0010B19EB0B09ABFB56
:10038000027C48EB0608C01B06FB02CC0BFB03CC2F
:1003900071EB0C01C1E70B46024641464846BDE8F9
:1003A000F08B13B54FF000004FF00001AFF3008069
:1003B000BDE81C40704700000FB41CB5084B06AAEE
:1003C0007B4469460090059800F0DBF90446002064
:1003D000694600F0E9F920461CBC5DF814FB0000FA
:1003E000E503000070B5044685690068C10601D5C3
:1003F000302600E02026C00707D070BDD4E90121D7
:1004000030469047206A401C20626D1EF6D570BDB4
:1004100070B5044685690078C00707D170BDD4E97E
:10042000012120209047206A401C20626D1EF6D5D5
:1004300070BD00002DE9F0410646002410687529C2
:10044000314616A510D0AFF30080002802DA4042F2
:1004500013A507E031688A0701D512A502E0490714
:1004600004D511A5012401E0AFF3008000210A2288
:1004700006F1240709E0B0FBF2FCB0FBF2F302FB4B
:100480001C00303078541846491C0028F3D123460C
:100490002A463046BDE8F04100F015B900000000E2
:1004A0002D0000002B000000200000002DE9F05F6F
:1004B000894604464FF0000ADFF874B1FB44C0F8E7
:1004C00020A02046E1688847002874D0252806D05F
:1004D000D4E901219047206A401C2062F1E7002600
:1004E0005F462046E16888472028054607DB312D16
:1004F00005D2781910F8200C08B10643F1E7B007CF
:1005000001D526F00406C4F81CA00027C4F818A0E2
:100510002A2D09D0284606F0E7FA38B304EB8708FD
:10052000303DC8F8185019E059F8041B204604EB78
:1005300087029161E1688847012F054618D1E0697B
:10054000002820DA26F020061DE0D8F8180000EB7D
:10055000800005EB40003038C8F818002046E168FC
:100560008847054606F0C0FA0028EED1012F0AD0D0
:100570002E2D08D12046E16888477F1C0546022FB2
:1005800046F02006C4DBA069002803DA404246F0AA
:100590000106A061F00701D026F010066C2D0BD0EB
:1005A000682D09D04C2D39D06A2D35D0742D35D019
:1005B0007A2D33D016E038E0E1682F462046884790
:1005C000B842054609D16C2F26D04FF48060E1680F
:1005D000064320468847054604E06C2F1AD04FF4A6
:1005E000807006430DB3A5F14100192802D82035CB
:1005F00046F400664A462946204626604E46FFF7E6
:1006000025FE80B101280BD0F61D26F0070000F171
:10061000080956E74020E4E78020D8E70020D6E725
:1006200006F104094DE7284652E7206ABDE8F09F2D
:100630001A78000010B5431C02E010F8011B71B1DC
:100640008107FAD14FF0013202C88C1A8C4314EAA8
:10065000C211F9D0C01A0A0603D0C01E10BDC01ABC
:1006600010BD0A0401D0801E10BD0902FCD0401E3E
:1006700010BD4FF0000200B513469446964620394F
:1006800022BFA0E80C50A0E80C50B1F12001BFF44B
:10069000F7AF090728BFA0E80C5048BF0CC05DF8B1
:1006A00004EB890028BF40F8042B08BF704748BFFF
:1006B00020F8022B11F0804F18BF00F8012B704773
:1006C0007047704770472DE9F0470D4699469246AE
:1006D000044600F124080168880604D5E06921F089
:1006E0001001216000E00120A84201DD471B00E06D
:1006F0000027A1697A1902EB0900081AA061207885
:10070000C00602D42046FFF76DFE002608E0D4E9BB
:1007100001211AF806009047206A401C761C2062CE
:100720004E45F4DB2078C0060AD52046FFF75AFE76
:1007300006E0D4E9012130209047206A401C206265
:10074000381EA7F10107F4DC07E0D4E9012118F80D
:1007500005009047206A401C2062281EA5F1010573
:10076000F3DC2046FFF754FE2078000602D5022075
:10077000BDE8F0870120FBE701694A1C02610878A7
:10078000704700B58FB0CDE90131002105910549D1
:100790007944CDE9031011466846FFF787FE0FB094
:1007A00000BD0000E5FFFFFF0A6802F8010B0A60C8
:1007B0007047754600F028F8AE4605006946534676
:1007C00020F00700854618B020B5FFF76BFDBDE8A7
:1007D00020404FF000064FF000074FF000084FF0A8
:1007E000000B21F00701AC46ACE8C009ACE8C00939
:1007F000ACE8C009ACE8C0098D4670470446AFF3C9
:1008000000802046FFF739FD004870472440002053
:1008100001491820ABBEFEE7260002007047000029
:10082000014800F0D7BB0000980000202DE9F041FE
:1008300004460E460025006804F0B0FB0746206819
:1008400004F0A4FB07435BD02068C168890111D57F
:10085000617F01290ED1217F01290BD10126294970
:1008600002E08D423DD26D1C0268D2435206F8D49C
:1008700040210160244D022E0FD0206804F08EFB31
:1008800048B120688168C1F3400121B981682940DD
:1008900041F010018160012E0DD0206804F076FB3C
:1008A00048B120688168C1F3400121B981682940BD
:1008B00041F020018160022E08D0032E04D00425CF
:1008C00001F060FA064617E00C25F9E70825F7E77E
:1008D00001F058FA801B05280ED92068806828424C
:1008E0000AD0E06D40F01000E065206E40F001009D
:1008F00020660120BDE8F081206880682842E7D1A9
:100900000020F7E7000040A3C0FFFF7F10B5846A16
:10091000E16D11F0500F06D0E16DC90625D52046D6
:1009200000F057FB10BDE06D40F40070E0652068FA
:100930000168090716D504F035FB78B12068C06856
:10094000800400280ADBE06D20F48070E065E06D33
:10095000C00403D4E06D40F00100E065204600F0E3
:1009600025FB10BDC0688007EBE7616D496BBDE8F2
:100970001040084710B5806AC16D41F04001C16563
:10098000016E41F00401016600F023FB10BD10B5BB
:10099000806A00F01DFB10BD70B5044600688168D8
:1009A000C1F3400504F0F6FA48B345BB20688168FE
:1009B00001F00D01012914D18168124A1140891CEE
:1009C000816021680320086001F0DCF9054612E02F
:1009D00001F0D8F9401B02280DD920688068C007B3
:1009E00009D0E06D40F01000E065206E40F001009D
:1009F0002066012070BD20688068C007E8D1002013
:100A000070BD0000C0FFFF7FF8B5044600200090D5
:100A1000206804F0BFFAE8BB20688168214A1142CF
:100A20002ED18168D6433140491C81601E488068C0
:100A300000F0E07000020DD51C481D490068B0FBB5
:100A4000F1F0401C00EB4000800000E0401E0090F0
:100A50000028FBD101F096F905461CE004F09AFA53
:100A600020B9206881683140491C816001F08AF911
:100A7000401B02280FD920680068C043C0070AD075
:100A8000E06D40F01000E065206E40F0010020664F
:100A90000120F8BD04E020680168C943C907DDD121
:100AA0000020F6E73F000080000300508000002097
:100AB000400D0300FEE70000014800F06BBF00009E
:100AC000C43F0020014800F065BF0000643F0020E3
:100AD0000D4902688A4201D20C4901E00B492031DC
:100AE000D2B21423083AB2FBF3F2436C02F01F02B5
:100AF00023F003031944816404498031C164012156
:100B0000914001657047000008040240000802405F
:100B10000179074A02EB81024265054A4432491EC7
:100B2000826501F01F0201219140C16570470000FC
:100B3000FC08024030B5D0E913456560446D14B13E
:100B4000D0E91645656090F8444004F01F05012483
:100B5000AC40056C6C60046863608368102B0368AC
:100B600003D099600068C26030BD9A600068C160BF
:100B700030BD704702E00121491EFDD2401EFAD26D
:100B8000704772B6FEE7704770477047704770470E
:100B90002DE9F84F00270446009790F85800DFF839
:100BA000D8930D46B846012810D0012684F8586025
:100BB000206804F0F3F958B1E06D40F02000E065E2
:100BC000012784F858803846BDE8F88F0220FBE7FB
:100BD000D5E900210C23206803EA91131844036B24
:100BE00001F01F014FF01F0C0CFA01FCC2F38462EC
:100BF00023EA0C038A4013430363206804F0CEF910
:100C00008246206804F0C2F95AEA00013CD1AA6881
:100C100029682068B2F1004F37D004F0CBF9206882
:100C2000416921F00041416120686A69C168C1F3EE
:100C3000C10149008A402969042931D000EB8100B3
:100C40002B68016EDFF834C303F0F84301EA0C01AE
:100C50001343194341F00041016622682869A969DC
:100C600002EB8000026E22F080720A430266297F46
:100C700022682869012910D0002102EB8000026E51
:100C800022F000720A4302667DE0002204F092F92D
:100C90002068416941F00041C5E74FF00071ECE781
:100CA000002104F06DF9400320684FF0000171D07D
:100CB00004F066F990FAA0F0B0FA80F128684203D7
:100CC0006DD090FAA0F0B0FA80F0814204D10022F9
:100CD0001146206804F07DF90121206804F050F9E4
:100CE000400320684FF001015CD004F049F990FA0C
:100CF000A0F0B0FA80F12868420358D090FAA0F032
:100D0000B0FA80F0814204D100220121206804F071
:100D100060F90221206804F033F9400320684FF0A5
:100D2000020147D004F02CF990FAA0F0B0FA80F15B
:100D30002868420343D090FAA0F0B0FA80F08142D4
:100D400004D100220221206804F043F90321206825
:100D500004F016F9400320684FF0030132D004F08C
:100D60000FF990FAA0F0B0FA80F1286842032ED073
:100D700090FAA0F0B0FA80F0814204D10022032161
:100D8000206804F026F9206804F004F910B3AAE002
:100D900000E004E004F0F4F8C0F384618EE7C0F3EF
:100DA000846092E704F0ECF8C0F38461A3E7C0F339
:100DB0008460A7E704F0E4F8C0F38461B8E7C0F307
:100DC0008460BCE704F0DCF8C0F38461CDE7C0F3D5
:100DD0008460D1E721682A7B286851F8B03FC0F3CE
:100DE000120C23EA0C0302F0180C654A22FA0CF2EA
:100DF000024013430B60E968494574D128684103F8
:100E00001AD090FAA0F1B1FA81F1491C01F01F014A
:100E100009294FEA403130D8002910D090FAA0F1CA
:100E2000B1FA81F101F1010101F01F0106FA01F6A9
:100E300008D1C0F3846109E0C0F38461E5E7C0F341
:100E40008461EFE790FAA0F1B1FA81F101F10101BB
:100E500001F01F0146EA816102D1C0F3846003E022
:100E600090FAA0F0B0FA80F000F1010000F01F004D
:100E700000EB400041EA005131E000290DD090FA2A
:100E8000A0F1B1FA81F101F1010101F01F0106FAAF
:100E900001F605D1C0F3846106E0C0F38461F2E796
:100EA00090FAA0F1B1FA81F101F1010101F01F0105
:100EB00046EA816102D1C0F3846003E090FAA0F0B9
:100EC000B0FA80F000F1010000F01F002D4A00EBA5
:100ED000400002EB005041EA000141F00071AA68B5
:100EE000206804F067F82848296801423FF469AE99
:100EF000264A9068264B00F0E070994202D0254BBC
:100F000099421CD103021AD42168B1F1A04F7FF499
:100F100058AE916840F4000021F0E0710143916007
:100F20001D481E490068B0FBF1F0401C00EB40007A
:100F3000800000E0401E00900028FBD141E6184DE3
:100F4000184BA94207D1C50105D421689942F5D0B3
:100F500040F0807009E0144DA942EFD14102EDD478
:100F600021689942EAD040F48000916821F0E07154
:100F70000143916025E6000000007F4000F0FF0380
:100F8000FFFF0700000020FE000008800003005063
:100F9000000021C31000C09080000020400D03001D
:100FA000000052C700010050000084CB10B500685B
:100FB0000549884206D106F06DF904488178012977
:100FC00000D1416410BD0000000100502400002049
:100FD000704770472DE9F05F044600680668456871
:100FE000DFF854B2DBF8080000F01F07B0070ED599
:100FF000A8070CD5E06DC00603D4E06D40F4006096
:10100000E0652046FFF7BFFD216802200860DFF899
:101010002CA270074FF0A04801D5680703D4300711
:1010200037D5280735D5E06DC00603D4E06D40F410
:101030000070E065206803F0B5FF20B320685045DC
:1010400001D1414600E00146814208D03FB1052F61
:1010500005D0092F03D0504503D1414602E0C168B5
:1010600001E00146C96889040DD4016809070AD561
:1010700003F094FF58B3E06D40F01000E065206E7F
:1010800040F0010020662046FFF790FF21680C2009
:101090000860B00601D5A80603D4700658D56806C6
:1010A00056D5E06DC00603D4E06D40F40050E06515
:1010B0002068C16C11F4C07F1AD00021894603F06A
:1010C00071FF02462068504514D1414613E0206864
:1010D000416821F00C014160E06D20F48070E06512
:1010E000E06DC004CFD4E06D40F00100E065CAE7D8
:1010F0000121E3E70146814208D03FB1062F05D028
:10110000072F03D0504503D1414602E0C16801E0FA
:101110000146C968B9F1000F14D08B0102D58AB11C
:101120008A040FD4026852060CD589020AD403F04F
:101130002DFFE8B3E06D40F01000E065206E40F058
:10114000010020662046FFF71FFD2168602008602F
:1011500030060BD5280609D5E06D40F48030E065F7
:10116000204600F067F9216880200860F0050CD562
:10117000E8050AD5E06D40F40030E0652046FFF751
:1011800005FD21684FF480700860B0050CD5A805F6
:101190000AD5E06D40F48020E0652046FFF7F7FCBB
:1011A00021684FF400700860F0062ED5E80600E0D4
:1011B00008E02AD5E06BD0B1AFB1DBF8080000F44D
:1011C000604013E02068416821F060014160E06DFB
:1011D00020F48050E065E06DC005B3D4E06D40F0D0
:1011E0000100E065AEE72068C068C00750B1E06D5F
:1011F00040F48060E065206E40F0020020662046EA
:10120000FFF7E7FE216810200860700512D5680519
:1012100010D5E06D40F48040E065206E40F008009D
:10122000206621684FF4806008602046BDE8F05FCA
:10123000FFF7ABBCBDE8F09F000300500001005079
:10124000F8B54FF0000504002E46009502D0E06D81
:1012500010B107E00120F8BD204600F0EDF8266649
:1012600084F8586020688168C1F3407119B18168C1
:10127000684A1140816020688168C1F3007189B9B2
:101280008168654A114041F080518160634864493A
:101290000068B0FBF1F04000801C00E0401E0090B0
:1012A0000028FBD120688168C1F3007141B9E16D6C
:1012B00041F01001E165216E41F001012166012537
:1012C00003F06CFE0646E06D00F01001E06D314366
:1012D00005D040F01000E06501252846F8BD20F457
:1012E000807040F00200E065206803F053FE88B98A
:1012F0004FF0A04080684B49C0F300008968C1F3FB
:101300000001084306D1484960688A6822F47C12CB
:1013100002438A60E168E06B627F0843A16841EAAA
:101320004231084394F8241040EA0140012904D1D5
:10133000218D3E4A02EB41410843E16A29B101F4A3
:101340007871226B014342EA01002168CA68384B78
:101350001A400243CA6020680169626B21F0406153
:1013600011430161206803F011FE06432ED1207F56
:1013700094F83810800340EA41012068C26844F2C2
:1013800002039A430A43C260206900282068016969
:101390000AD041F480310161206850F8C01F2269F1
:1013A0006FF30D01114307E021F4803101612068E2
:1013B00050F8C01F6FF30D01016094F84000012840
:1013C0000CD02068016921F00101016160690128E8
:1013D0002068016B21F00F0110D012E0D4E9111048
:1013E0000143D4E91302104301432068026940F22B
:1013F000FC739A43114341F00101E6E7226A521E51
:1014000011430163E06D20F0020040F00100E0654F
:1014100063E70000C0FFFF5FC0FFFF7F8000002088
:10142000400D030000010050000300500000FEFFCB
:101430000740F0FF7047000070B598B006461421D1
:1014400011A8FFF716F944216846FFF712F925495C
:101450003068884244D1C001009080030F906846F4
:1014600001F032F808B1FFF78CFB1F49C86C40F45B
:101470000050C864C86C00F400501690C86C40F06E
:101480000100C864C86C002500F00100169001201E
:1014900011900320CDE9120511A94FF0904000F002
:1014A0008FFB134C114820602420C4E901058020E3
:1014B000C4E90350400060618000C4E9060520468D
:1014C000256200F0C5FA08B1FFF75BFB74650022E6
:1014D00011461220A66200F05FFF122000F04EFFBE
:1014E00018B070BD00010050001002401C00024006
:1014F000643F00202DE9F0410446344817468846F1
:10150000806800F01F05206803F048FD00285AD1CC
:1015100094F85800012856D0012084F8580000267D
:1015200025B1052D02D0092D00D003E02046FFF79C
:101530006BFA18B184F85860BDE8F081E06D40F6B0
:101540000161884340F48070E06521492068884249
:1015500002D14FF0A04100E00146814200D01DB908
:10156000E06D20F48010E065E06DC00404D5206ECD
:1015700020F00600206600E02666616D1548C8620E
:10158000616D15480863616D1448486321681C202B
:10159000086084F858602068416841F0100141609B
:1015A0002068C16841F00101C16021683B464246A4
:1015B0004031606D00F0ACFA21688A68084B1A402F
:1015C000121D8A60B8E70220B6E700000003005051
:1015D000000100500D0900088F0900087509000876
:1015E000C0FFFF7F70B5044690F85800012809D06D
:1015F000012084F8580003212046FFF717F9050061
:1016000002D027E0022070BD2068C16821F00101EE
:10161000C160606D90F82510022907D100F046F9ED
:10162000050003D0E06D40F04000E06520684168AF
:1016300021F010014160204615B1FFF7ADF909E036
:10164000FFF7AAF9050005D1E06D20F4885040F0BD
:101650000100E065002084F85800284670BD0000B5
:101660002DE9F04790460D4604004FF0000A0FD0D8
:1016700075B1607901280ED04FF0010984F805900A
:1016800002202071A96808F01006042905D049E05D
:101690000120BDE8F0870220FBE700F073FB07465E
:1016A0005FEA08004FF0030809D021E000F06AFB70
:1016B000C01B012803D92068406B000410D42068A7
:1016C000406B0004F2D42168686A086417E000F0F7
:1016D00059FBC01B01280BD92068406B002807DA92
:1016E000206940F00800206184F804800320D0E7DE
:1016F0002068406B0028EADB2168686A486420683B
:10170000816C40F2FF32B2409143AA6AB240114369
:1017100081642068C16CFF22B2409143EA6AB24002
:101720001143C164E869012808D12068826B1F2138
:10173000B1408A43296AB140114381632068C26B7A
:101740000720B0408243A869012803D0022856D060
:101750006869E8B300206B69A968194301434FF435
:10176000807000FA06F39A432B79012B00D00020F9
:1017700008434FF4007101FA06F39A436B79012B89
:1017800000D0002141EA0008286822F440470228DE
:1017900037D00743216808FA06F03843C863206849
:1017A00001684FF48042B2409143016020680268B2
:1017B00040F6FE71B1408A43E968B14011430160CF
:1017C00020680168C022B24091430160287B00E09C
:1017D00015E0297CC0F3830001F03C0140EA81114F
:1017E0002068026E40F60F73B3409A43B1400A433B
:1017F000026684F8049000206071504649E7012099
:10180000A9E701F09DF80649884202D947F400474C
:10181000C0E704498842BDD947F48047BAE70000D1
:101820000068890900B4C40470B5040003D02079AD
:10183000002510B105E0012070BD6571204600F063
:1018400007F802202071256101202071002070BD61
:1018500010B586B0044614216846FEF70AFF114908
:10186000206888421BD11048C16C41F48031C164AA
:10187000C16C01F480310591C16C41F00101C1647A
:10188000C06C694600F00100059010200090032014
:101890000190002002904FF0904000F091F906B0C6
:1018A00010BD0000000800500010024010B590F874
:1018B000252000210123022A03D00421C163012134
:1018C00022E00268146824F00E041460826C14682C
:1018D00024F4807414600268146824F00104146015
:1018E00090F84420046C02F01F0203FA02F26260D6
:1018F000D0E913245460426D32B1146824F480742A
:101900001460D0E91624546080F82530002280F855
:101910002420084610BD70B590F82510002401223F
:101920002346022907D00421C16380F8252080F8CE
:101930002430012429E001680D6825F00E050D60B2
:1019400001680D6825F001050D60816C0D6825F4B6
:1019500080750D6090F84410154601F01F018A4013
:10196000016C4A60D0E913124A60416D31B10A68D6
:1019700022F480720A60D0E916124A6080F825507D
:1019800080F82430816B01B18847204670BD90F803
:1019900025007047F0B4016C0B6801680A6890F884
:1019A0004440042504F01F0405FA04F61E4211D039
:1019B00056070FD50A68920603D40A6822F004027B
:1019C0000A6090F8441001F01F018D40016C4D60D9
:1019D000016B1DE0022606FA04F71F424FF0000CCF
:1019E0004FF0010518D0970716D50A68920605D45E
:1019F0000A6822F00A020A6080F8255090F8441024
:101A000001F01F018E40016C4E6080F824C0C16A55
:101A100000291AD0F0BC08470826A6401E4214D060
:101A2000120712D50A6822F00E020A6090F84410DC
:101A3000026C01F01F0105FA01F15160C56380F8E5
:101A4000255080F824C0416BE2E7F0BC70470000ED
:101A500070B504000CD02B4A20681421904209D2A2
:101A6000294A0244B2FBF1F18900616427490AE086
:101A7000012070BD234A52420244B2FBF1F18900B9
:101A80006164204908392164022184F82510016825
:101A900047F6F0729143D4E902231A43D4E904359E
:101AA0002B431A43A3691A43E3691A43236A1A436F
:101AB0000A4302602046FFF70BF8A0680025B0F546
:101AC000804F00D16560A16C20790860D4E91301D2
:101AD00041606068401E032808D82046FFF718F8C8
:101AE000606D0560D4E91601416002E06565A56599
:101AF000E565E563012084F8250084F82450002082
:101B000070BD000008040240F8FFFDBF0000024065
:101B100070B5044690F82400002501280CD001205F
:101B200084F8240094F825600020012E06D084F863
:101B300024000225284670BD022070BD022684F8CC
:101B40002560E0632068066826F0010606602046EE
:101B5000FEF7F0FF206B00282068016802D041F0FA
:101B60000E0106E021F0040101602068016841F0E7
:101B70000A010160A06C0168C90303D5016841F442
:101B800080710160606D18B1016841F4807101607D
:101B90002068016841F001010160CBE770B504469F
:101BA00000F0F0F80546601C02D004484068044488
:101BB00000F0E8F8401BA042FAD370BD740000208A
:101BC0002DE9F84FDFF888910022A9F1040B0327D3
:101BD0004FF00F0C09F1040AABF1040EB1E001253E
:101BE00095402B4073D00C7904F00304012C01D0F4
:101BF000022C15D18668540007FA04F826EA080674
:101C0000D1F80C8008FA04F848EA0608C0F8088001
:101C10004468AC430D79C5F30015954025434560F4
:101C20000C79E443A40708D0C568540007FA04F609
:101C3000B5438E68A6402E43C6600C7904F00304B9
:101C4000022C11D1D40800EB8406356A5407E40E47
:101C50000CFA04F825EA0805D1F8108008FA04F80F
:101C600048EA0508C6F820800568540007FA04F61B
:101C7000B5430E7906F00306A6402E4306604C6875
:101C800014F4403F5CD0334C256E45F001052566C9
:101C9000246E22F0030504F0010400942E4C05EBA1
:101CA0000408D8F808509407260F0CFA06F4A54348
:101CB000B0F1904F04D0294CA04203D1012417E089
:101CC000002415E0264CA04202D1022410E037E0A7
:101CD000244CA04201D103240AE0234CA04201D1AC
:101CE000042405E0214CA04201D1052400E0062493
:101CF000B4402C43C8F80840D9F800404D464E681F
:101D00009C43F60200D51C432C60DAF8004055468F
:101D10004E689C43B60200D51C432C60DBF80040A3
:101D20005D464E689C43B60300D51C432C60DEF82C
:101D3000004075464E689C43F60300D51C432C605A
:101D4000521C0B6833FA02F47FF449AFBDE8F88FF8
:101D50000804014000100240000001400004004857
:101D600000080048000C004800100048001400481B
:101D70000069084000D0012070470AB181617047B6
:101D8000816270470148806870470000740000203D
:101D900090F84120202A24D190F84020012A20D018
:101DA000012280F84020242280F841200268136834
:101DB00023F0010313600268136823F48053136057
:101DC000026813680B43136001680A6842F001025D
:101DD0000A60202180F84110002180F84010084658
:101DE00070470220704790F84120202A22D190F8B5
:101DF0004020012A1ED0012280F84020242280F8B1
:101E000041200268136823F001031360026813681D
:101E100023F4706343EA0121116001680A6842F00B
:101E200001020A60202180F84110002180F8401052
:101E300008467047022070477047000070B504469E
:101E40000068114A90421DD1104D4FF0807319B1B6
:101E5000A87A16280BD00CE0287A002812D0204649
:101E6000BDE87040094901220A3100F065B905F06A
:101E700017FAA97AE86C012201442046BDE87040B7
:101E800000F0C2B970BD00000078004024000020BE
:101E900030B403689A691968D243D40509D4CC4395
:101EA000240606D4446C44F0010444644FF4807466
:101EB000DC6153050AD4CB431B0607D4436C43F0C3
:101EC0000803436404684FF48063E36192050AD415
:101ED000C943090607D4416C41F00201416402681C
:101EE0004FF40071D161416C11F00B0F02D030BC86
:101EF00002F008BA30BC7047026891691268436BFF
:101F0000002B00D01847704710B590F841102029D9
:101F100001D0022010BD282180F8411003494163FF
:101F20004FF4004102F052F9002010BD794B000837
:101F30007047000070B5040004D094F841000025FB
:101F400010B106E0012070BD84F84050204600F03A
:101F500063F8242084F841002068016821F0010121
:101F600001606068216820F0706008612068816805
:101F700021F400418160E0680128A06830D040F47D
:101F8000044021688860E0680228206841682AD0FF
:101F900021F40061416020684168144A11434160A6
:101FA0002068C16821F40041C160D4E904010843FC
:101FB000A16940EA01202168C860D4E9070108430B
:101FC000216808602068016841F0010101606564D2
:101FD000202084F84100256384F84250002070BD21
:101FE00040F40040CDE741F40061D3E700800002F7
:101FF000054A0168914206D1044901220A72002271
:102000008A72FFF781BF70470078004024000020EB
:10201000704770477047704770B598B004461421F8
:1020200011A8FEF726FB44216846FEF722FB27494C
:102030002068884248D18615002568460096089594
:1020400000F042FA08B1FEF79CFD214CE06C40F034
:102050000100E064E06C00F001001690E06C40F0DC
:102060000200E064E06C119600F002001690122667
:102070000220CDE91450CDE9126511A9B006FFF791
:102080009FFD202011900820CDE91450CDE9126564
:1020900011A91048FFF794FDA06D40F08040A065A5
:1020A000A06D002200F08040169011465C2000F0E8
:1020B00073F95C2000F062F9002211465D2000F007
:1020C0006BF95D2000F05AF918B070BD007800403F
:1020D00000100240000400480A4A0168914210D1F1
:1020E00009490A7A12B100220A7202E08A7A521C65
:1020F0008A72CA6C897A4FF080731144322200F0E0
:102100001BB870470078004024000020084A01688E
:1021100091420BD1074A4FF08073917A491CC9B2A2
:102120009172D26C1144322200F06EB870470000F8
:1021300000780040240000202DE9F0410E4690F880
:1021400041101F46154604462820884316D196B1F3
:102150008DB148F202084146204602F007F894F893
:10216000400001280DD0012084F8400094F841007F
:10217000292808D01EE04FF4007060640120BDE8FB
:10218000F0810220FBE70121204601F0EFFF2068EB
:10219000016849040ED5016821F480410160A06BFB
:1021A00040B117498163A06BFFF7B5FB10B1A06B7D
:1021B000816B88472A2084F84100202084F842005F
:1021C000002161642068426822F400424260666235
:1021D0006585608D2085E7620A48606320688269B2
:1021E0008369C2F3C002DB0302D40AB10822C261D0
:1021F00084F840104146204601F0E8FF0020BEE789
:1022000059410008794B00082DE9F0410E4690F83D
:1022100041101F46154604462820884316D196B122
:102220008DB148F201084146204601F09FFF94F825
:10223000400001280DD0012084F8400094F84100AE
:102240002A2808D01EE04FF4007060640120BDE829
:10225000F0810220FBE70221204601F087FF206881
:10226000016809040ED5016821F400410160E06BAA
:1022700040B117498163E06BFFF74DFB10B1E06B94
:10228000816B8847292084F84100202084F842008F
:10229000002161642068426822F400424260666264
:1022A0006585608D2085E7620A48606320688269E1
:1022B0008369C2F3C002DB0302D50AB10822C261FE
:1022C00084F840104146204601F080FF0020BEE720
:1022D00059410008794B000802488168426811445E
:1022E000816070477400002010B50024032000F0C6
:1022F00073F80F2000F008F808B1012401E000F0A5
:1023000025F8204610BD000070B50E4E054600248D
:10231000706898B14FF47A71B1FBF0F00A4909681E
:10232000B1FBF0F000F066FD40B9102D06D200229E
:102330002946501E00F030F8356000E001242046A8
:1023400070BD000074000020800000200A4882B0A8
:10235000016E41F001010166016E01F00101009181
:10236000816D41F080518165806D00F0805000905A
:1023700002B000F0A1B8000000100240002809DB04
:1023800000F01F02012191404009800000F1E0208F
:10239000C0F8001170470000F0B40E4B1B68C3F387
:1023A0000223C3F10704042C00D904241D1D072DAA
:1023B00001D2002300E0DB1E012606FA04F56D1EA3
:1023C0000D409D409E40761E164045EA0601F0BC39
:1023D00004F07ABB0CED00E0064A00F0070110683B
:1023E0004FF6FF03184040EA0120034908431060FC
:1023F000704700000CED00E00000FA052B492C4B63
:102400000A6832214A432B4940B1B0F5007F086881
:1024100029D020F4C06040F480602CE00868C0F34C
:102420004120022804D051F8800F20F4807022E06F
:10243000D1F8800020F48070C1F88000086820F492
:10244000C06040F400700860B2FBF3F0401C00E094
:10245000401E4A69520501D50028F9D14869400556
:102460000AD503207047C0F34120022806D051F856
:10247000800F40F48070086000207047D1F8800021
:1024800040F48070C1F88000086820F4C06040F417
:1024900000700860B2FBF3F0401C00E0401E4A6987
:1024A0005205DBD50028F9D1D8E7000080000020D4
:1024B00040420F00007000400248816841F48041B2
:1024C00081607047007000402DE9F84F04460026F7
:1024D0000068A24D374600035CD5A86D4FF0000997
:1024E000C00009D4A86D40F08050A865A86D4FF0D9
:1024F000010900F080500090DFF864A2DAF80010C3
:1025000041F48071CAF80010FFF73CFC804607E0F8
:10251000FFF738FCA0EB0800022801D9032631E0C0
:10252000DAF80000C005F3D566BBD5F8900010F4CA
:10253000407014D0216C814211D0D5F89000D5F8AC
:10254000901020F4407041F48031C5F89010D5F817
:10255000901021F48031C5F89010C5F89000C007A4
:102560004ED0FFF70FFC804641F2883A05E0FFF7B6
:1025700009FCA0EB08015145D0D8D5F890008007A0
:10258000F5D5EEB33746B9F1000F03D0A86D20F0B2
:102590008050A8652078C00707D0D5F8880061680A
:1025A00020F003000843C5F888002078800707D58D
:1025B000D5F88800A16820F00C000843C5F8880011
:1025C0002078400707D5D5F88800E16820F0300072
:1025D0000843C5F888002078000707D5D5F888009B
:1025E000216920F0C0000843C5F8880020788006E3
:1025F00009D5D5F88800616920F44060084300E0FF
:102600003DE0C5F888002078400607D5D5F8880059
:10261000A16920F440500843C5F8880020780006DE
:1026200007D5D5F88800E16920F440400843C5F893
:1026300088002088C00507D5D5F88800216A20F4D5
:1026400040300843C5F888002088800507D5D5F8B4
:102650008800616A20F440200843C5F8880020887B
:10266000400519D5D5F88800A16A20F44010084328
:10267000C5F88800A06AB0F5801F09D00CE0D5F835
:102680009000216C20F440700843C5F890007AE770
:10269000E86840F48010E860208800050FD5D5F880
:1026A0008800E16A20F440000843C5F88800E06A29
:1026B000B0F5800F03D1E86840F48010E86020880E
:1026C000C0040FD5D5F88800216B20F04070084376
:1026D000C5F88800206BB0F1807F03D1E86840F432
:1026E0008010E860208881044FF000600ED5D5F896
:1026F0008810626B21F040611143C5F88810616B4E
:10270000814203D1E96841F48011E96021884904DC
:102710000ED5D5F88810A26B21F040611143C5F8A1
:102720008810A16B814203D1E86840F48010E86012
:10273000208800040FD5D5F88800E16B20F04050C8
:102740000843C5F88800E06BB0F1805F03D1E8680A
:1027500040F48030E8603846BDE8F88F0010024051
:10276000007000402DE9F0470D4604004FF00007CF
:1027700025D0DFF8AC91D9F8000000F00F00A84296
:102780000CD2D9F8001021F00F012943C9F800102C
:10279000D9F8000000F00F00A84210D12168614E66
:1027A000C80741F2883A58D06068DFF87C81032876
:1027B00008D0022830682CD0400500282BDB0120EF
:1027C000BDE8F08730688001F9D5F06800F00302B9
:1027D000F068C0F30310401C032A18D0534AB2FB20
:1027E000F0F0F268C2F306225043F268C2F341628D
:1027F000521C5200B0FBF2F0404517D9B06810F0FF
:10280000F00F0CD0880711D5A06840B10EE0484AFF
:10281000E5E78003D1E700F0BDF8404506D9B06890
:1028200020F0F00040F08000B0608027B068616860
:1028300020F003000843B060FFF7A4FA804605E0EB
:10284000FFF7A0FAA0EB080151453BD8B0686168DA
:1028500000F00C00B0EB810FF2D12068810714D595
:10286000400703D5B06840F4E060B060207800070E
:1028700005D5B06820F4605040F4E060B060B06806
:10288000A16820F0F000084304E0802F03D1B06875
:1028900020F0F000B060D9F80010484601F00F01B8
:1028A000A94217D90168C84621F00F0129430160E8
:1028B000FFF768FA0746D14606E0FFF763FAC11B47
:1028C000494501D903207BE7D8F8000000F00F004C
:1028D000A842F2D12078400705D5B068E16820F41D
:1028E000E0600843B0602078000706D5B068216931
:1028F00020F4605040EAC100B06000F04BF8B168CD
:102900000C4AC1F30311515C01F01F01C8400A4990
:1029100008600A480068BDE8F047FFF7F5BC000012
:10292000002002400010024000B4C4040024F4005F
:1029300000127A00C27C0008800000207400002091
:1029400001480068704700008000002005480649E3
:1029500000688968054AC1F30221515C01F01F013A
:10296000C84070478000002000100240D27C000860
:102970000548064900688968054AC1F3C221515CCF
:1029800001F01F01C8407047800000200010024085
:10299000D27C0008184A10B59068C0F3810117482E
:1029A00001290BD091684410C1F38101022906D09E
:1029B0009168C1F38101032903D0002010BD204696
:1029C00010BDD16801F00303D168C1F30311491CA4
:1029D000032B02D0B0FBF1F001E0B4FBF1F0D168C1
:1029E000C1F306214843D168C1F34161491C490044
:1029F000B0FBF1F010BD0000001002400024F40014
:102A00002DE9F843040078D02078F54DC00745D073
:102A1000A868E96800F00C0001F003010C2802D05E
:102A2000082817D001E0032914D06068B0F5803F72
:102A300017D0B0F5A02F286817D020F48030286078
:102A4000286820F4802028606068D8B1FFF79AF9E0
:102A5000064613E02868800320D560680028D2D09D
:102A60001CE0286840F48030EDE740F480202860C6
:102A7000F7E7FFF787F9801B64286ED82868800382
:102A8000F7D50BE0FFF77EF9064604E0FFF77AF989
:102A9000801B6428F1D828688003F7D42078800749
:102AA0004BD5A868E96800F00C0001F003010C2880
:102AB00002D004280DD001E002290AD0E0680028E5
:102AC00028682BD040F480702860FFF75BF9064639
:102AD00019E02868400502D5E068002893D06868AE
:102AE000217C20F0FE4040EA01606860BD4800683B
:102AF000FFF70AFC002800D11FE06DE1FFF742F963
:102B0000801B0228B9D828684005F7D56868217C61
:102B100020F0FE4040EA016068600EE020F4807022
:102B20002860FFF72FF9064604E0FFF72BF9801B1A
:102B30000228A2D828684005F7D42078000728D5B5
:102B400060690028D5F8940012D040F00100C5F863
:102B50009400FFF717F9064605E08FE0FFF712F93A
:102B6000801B022889D8D5F894008007F6D510E09C
:102B700020F00100C5F89400FFF704F9064604E0D0
:102B8000FFF700F9801B022878D8D5F89400800759
:102B9000F6D42078400761D5A86D0027C00008D47E
:102BA000A86D40F08050A865A86D012700F0805006
:102BB00000908D480168C90511D40168804641F430
:102BC00080710160FFF7DEF8064604E0FFF7DAF8EF
:102BD000801B022852D8D8F80000C005F6D5A0689E
:102BE000012815D00528D5F8900016D020F0010056
:102BF000C5F89000D5F8900020F00400C5F89000CA
:102C0000A06841F28838B8B1FFF7BCF806460EE07C
:102C1000D5F8900040F00100F0E740F00400C5F85E
:102C20009000F5E7FFF7AEF8811B414526D8D5F8AF
:102C300090008007F6D50CE0FFF7A4F8064604E004
:102C4000FFF7A0F8811B414518D8D5F89000800700
:102C5000F6D41FB1A86D20F08050A86520788006BA
:102C600028D5A0690028D5F8980012D040F00100BE
:102C7000C5F89800FFF786F8064605E072E0FFF712
:102C800081F8801B02286DD8D5F898008007F6D50A
:102C900010E020F00100C5F89800FFF773F8064631
:102CA00004E0FFF76FF8801B02285BD8D5F8980086
:102CB0008007F6D4E069E8B3A968C1F3810103296C
:102CC0005BD00228286820F08070286003D0FFF7CE
:102CD00059F8044649E0FFF755F8064604E0FFF7C7
:102CE00051F8801B02283DD828688001F7D4F4E908
:102CF00008016FF00F0202EB01110843218A520410
:102D0000490802EB4151A26841EA02210843217DB2
:102D10004FF07E42490802EB41610843217B40EAC3
:102D2000C160E968314A11400843E860286840F012
:102D3000807000E052E02860E86840F08070E86051
:102D4000FFF720F8044604E0FFF71CF8001B0228F8
:102D500008D828688001F7D540E0FFF713F8001B7A
:102D6000022802D90320BDE8F88328688001F4D442
:102D7000E8681F490840E86030E00128F3D0E868BF
:102D8000226A00F00301914226D1616A00F0F0024C
:102D90000901103991421FD1A26A00F4FE41B1EB42
:102DA000022F19D194F82C2000F07841B1EBC26FBA
:102DB00012D1218E00F4C00249084905A1F5001185
:102DC000914209D194F8341000F0C06049084906D6
:102DD000A1F10071814201D00120C4E70020C2E7C7
:102DE0000010024074000020007000400C809F0121
:102DF000FCFFEEFE10B5401EB0F1807F01D3012034
:102E000010BD4FF0E02460610F21601703F05CFEFD
:102E10000020A06107202061002010BD704770478E
:102E20007047000030B590F83C20012A42D00122C2
:102E300080F83C20CA688B6822F440721A434B68C1
:102E400022F480621A430B6822F400621A430B6971
:102E500022F480521A434B6922F400521A430B6B3E
:102E600022F480421A430B8B22F4702242EA03427E
:102E7000CB6922F080521A430F4D03680024AB4205
:102E800002D00E4DAB4210D10D8D22F4700242EAF9
:102E900005520D6A22F080722A434D6A22F00072B8
:102EA0002A43C96A22F000520A435A6480F83C401F
:102EB000002030BD022030BD002C01400034014014
:102EC0007047704770470000F0B590F83C20012A29
:102ED0003AD0012580F83C50022280F83D2003685A
:102EE0005A689C68194E1A4FB34201D0BB4204D1B4
:102EF00022F4700C4A6842EA0C02DFF858C002EA79
:102F00000C02D1F800C04CEA020CC3F804C00268FD
:102F1000B2420DD0B2F1804F0AD00F4B9A4207D087
:102F20000E4B9A4204D0BA4202D00D4B9A4204D1C1
:102F3000896824F080031943916080F83D50002196
:102F400080F83C100846F0BD0220F0BD002C014086
:102F5000003401408FFFFFFD0004004000080040E6
:102F600000400140704710B5040003D094F83D00C4
:102F700010B107E0012010BD002084F83C0020467D
:102F800000F022F8022084F83D00211D206802F0A4
:102F9000E1FC012084F8480084F83E0084F83F00FA
:102FA00084F8400084F8410084F8420084F843002B
:102FB00084F8440084F8450084F8460084F847000B
:102FC00084F83D00002010BD08B50068274A284954
:102FD000904229D1086E40F400600866086E002215
:102FE00000F40060009011461820FFF7D5F9182072
:102FF000FFF7C4F9002211461920FFF7CDF9192077
:10300000FFF7BCF9002211461A20FFF7C5F91A2074
:10301000FFF7B4F9002211461B20FFF7BDF9BDE808
:1030200008401B20FFF7AAB9B0F1804F0BD0114A1E
:10303000904210D1886D40F002008865886D00F0E4
:103040000200009008BD886D40F001008865886D21
:1030500000F00100F5E7084A9042F3D1886D40F096
:1030600004008865886D00F00400EAE7002C014048
:1030700000100240000400400008004090F83D109D
:10308000012901D001207047022180F83D1000681D
:103090000F4988420ED0B0F1804F0BD00D498842C5
:1030A00008D00D49884205D00C49884202D00C490D
:1030B000884207D181680B4A1140062906D0B1F534
:1030C000803F03D0016841F001010160002070479A
:1030D000002C014000040040000800400034014082
:1030E000004001400700010070B5044690F83C0024
:1030F0000025012814D0012684F83C60022084F8C1
:103100003D0020688268364B1A4022F47F4282607C
:10311000086870282ED010DC10F00F0F03D021E0CB
:103120004FF0020070BD4FEA2012072A1AD2DFE8E2
:1031300002F0525252524A3840002A4BC21A984268
:1031400049D009DCB0F5805F0DD0B0F5005F1CD030
:10315000B0F1101F06D13EE0102A3CD0202A3AD010
:10316000502A38D0012584F83D60002084F83C00C6
:10317000284670BDCB68D1E90121206802F055FCDA
:103180002068816841F0770109E0CB68D1E901212D
:10319000206802F04AFC2068816841F48041816027
:1031A000E1E7CA684968206802F0EAFD502120681A
:1031B00006E0CA684968206802F0F3FD60212068D3
:1031C00002F03EFCCFE7CA684968206802F0D8FDEB
:1031D00040212068F4E7226801461046F0E700002D
:1031E00088FFCEFF2000100070472DE9F041044613
:1031F0000068C66805694FF00007A90713D5B10735
:1032000011D5F91E016101202077206880698007AF
:10321000204602D0FFF7E8FF04E000F033F9204633
:1032200000F012FA2777680716D5700714D52168C1
:103230006FF004000861022020772068806910F494
:10324000407F204602D0FFF7CFFF04E000F01AF9DC
:10325000204600F0F9F92777280715D5300713D550
:1032600021686FF008000861042020772068C06999
:103270008007204602D0FFF7B7FF04E000F002F914
:10328000204600F0E1F92777E80616D5F00614D5B8
:1032900021686FF010000861082020772068C0695D
:1032A00010F4407F204602D0FFF79EFF04E000F0BC
:1032B000E9F8204600F0C8F92777E80708D0F007BA
:1032C00006D021686FF001000861204600F046FB3F
:1032D000280601D4A80408D5300606D521686FF465
:1032E000025008612046FFF79AFDE80508D5300630
:1032F00006D521686FF4807008612046FFF78EFDC7
:10330000680608D5700606D521686FF04000086190
:10331000204600F024FBA80608D5B00606D5216893
:103320006FF0200008612046FFF77AFDE80208D51B
:10333000F00206D521686FF4801008612046FFF77F
:10334000C0FDA80208D5B00206D521686FF40010B0
:1033500008612046FFF7B4FD680208D5700206D563
:1033600021686FF4800008612046FFF7ABFD28025A
:103370000AD5300208D521686FF4000008612046A4
:10338000BDE8F041FFF7EEBDBDE8F081F0B587B0D4
:10339000044614216846FDF76CF9344D216800237A
:1033A000334A02244FF09040A9420DD1D16C41F034
:1033B0000101D164D16C01F001010591D11400919A
:1033C000CDE901430B214DE00126B1F1804F13D02F
:1033D000284F294DB94221D1D06C40F00200D06471
:1033E000D06C0096CDE9014300F00200CDE9044025
:1033F0006946039328460DE0D16C41F00101D16488
:10340000D16C0094CDE9014301F00101CDE90461E3
:1034100003936946FEF7D4FB07B0F0BD174EB142E7
:1034200010D1D06C40F00200D064D06C00F00200EB
:10343000059048150090CDE90143CDE90334694674
:103440002846E7E70E4DA942E6D1D16C41F00101D3
:10345000D164D16C01F00101059104210091CDE905
:1034600001430921CDE90331D3E70000002C0140DD
:103470000010024000040040000400480008004022
:1034800000400140704770B5044690F83C000026AB
:103490000D4601280BD0012084F83C000C2A4AD0AC
:1034A00007DC82B1042A20D0082A06D131E00220AC
:1034B00070BD102A53D0142A63D00126002084F84E
:1034C0003C00304670BD206802F0C4FA2068816973
:1034D00041F0080181612068816921F00401816166
:1034E000206881692A69114311E0206802F000FB1D
:1034F0002068816941F4006181612068816921F45B
:1035000080618161206881692A6941EA02218161C3
:10351000D4E7206802F034FB2068C16941F008015B
:10352000C1612068C16921F00401C1612068C169DD
:103530002A69114311E0206802F06AFB2068C16922
:1035400041F40061C1612068C16921F48061C161F9
:103550002068C1692A6941EA0221C161AEE7206899
:1035600002F09EFB2068016D41F0080101652068B2
:10357000016D21F0040101652068016D2A69114384
:1035800011E0206802F0C4FB2068016D41F4006185
:1035900001652068016D21F4806101652068016D7D
:1035A0002A6941EA0221016588E710B5040003D0C9
:1035B00094F83D0010B107E0012010BD002084F810
:1035C0003C00204600F022F8022084F83D00211D36
:1035D000206802F0BFF9012084F8480084F83E001A
:1035E00084F83F0084F8400084F8410084F84200E9
:1035F00084F8430084F8440084F8450084F84600C9
:1036000084F8470084F83D00002010BD08B500682C
:103610000B49884212D10B48016E41F4803101669A
:10362000006E002200F48030009011461820FEF752
:10363000B3FEBDE808401820FEF7A0BE08BD00009C
:10364000004001400010024000680549884205D151
:103650000448406C002801D103F0F4BD704700001D
:10366000002C01402400002030B5044669B1042933
:103670000ED008290FD00C2910D0102911D094F8A1
:103680004300012810D0012030BD94F83E00F8E737
:1036900094F83F00F5E794F84000F2E794F8410011
:1036A000EFE794F84200ECE70220E9B3042942D0A6
:1036B000082943D00C2944D0102945D084F8430070
:1036C0000122206802F0A4F921492068214A224BF6
:1036D000884209D0904207D0984205D01F4DA84299
:1036E00002D01F4DA84203D1456C45F40045456406
:1036F000206888420CD0B0F1804F09D01949884227
:1037000006D01949884203D0904201D0984207D18F
:103710008168164A1140062908D0B1F5803F05D0CE
:10372000016841F0010100E002E00160002030BDCD
:1037300084F83E00C4E784F83F00C1E784F8400005
:10374000BEE784F84100BBE784F84200B8E7000018
:10375000002C014000340140004001400044014081
:10376000004801400004004000080040070001003C
:1037700070B50446002569B104290ED008290FD080
:103780000C2910D0102911D094F84300012810D032
:10379000012070BD94F83E00F8E794F83F00F5E78B
:1037A00094F84000F2E794F84100EFE794F8420003
:1037B000ECE7022091B1042913D0082914D00C2978
:1037C00015D0102916D084F84300B1B1042919D0BE
:1037D000082952D00C2955D001254CE084F83E0030
:1037E000F3E784F83F00F0E784F84000EDE784F861
:1037F0004100EAE784F84200E7E72068C26842F047
:10380000020203E02068C26842F00402C2600122A2
:10381000206802F0FDF81E4920681E4A1E4B8842AF
:1038200009D0904207D0984205D01C4EB04202D039
:103830001B4EB04203D1466C46F4004646642068F5
:1038400088420CD0B0F1804F09D01649884206D08A
:103850001549884203D0904201D0984207D181682F
:10386000124A1140062906D0B1F5803F03D0016805
:1038700041F001010160284670BD2068C26842F035
:103880000802C3E72068C26842F01002BEE70000E9
:10389000002C014000340140004001400044014040
:1038A00000480140000400400008004007000100FB
:1038B00030B504460D460068002202F0A9F8224AFD
:1038C00041F2111120688B0090420BD01F4A9042A8
:1038D00008D01F4A904205D01E4A904202D01E4A8C
:1038E000904209D1026A0A4206D1026A1A4203D101
:1038F000426C22F4004242642068026A0A4206D105
:10390000016A194203D1016821F00101016001201F
:103910005DB1042D0CD0082D0DD00C2D0ED0102D26
:103920000FD084F84300002030BD84F83E00FAE751
:1039300084F83F00F7E784F84000F4E784F841009A
:10394000F1E784F84200EEE7002C0140003401402A
:10395000004001400044014000480140704770476A
:1039600090F88410012918D0012180F884102421B6
:10397000C0F8881001680A680B6823F001030B6027
:1039800022F0005100224266036819602021C0F82D
:10399000881080F8842010467047022070477047D6
:1039A000704770B5044690F8840001281DD00120AE
:1039B00084F884002420C4F8880020680568026820
:1039C00022F0010202602068826822F060620A43ED
:1039D0008260204602F01EFA206805602020C4F8AC
:1039E0008800002084F8840070BD022070BD70B58E
:1039F000044690F8840001281DD0012084F884003A
:103A00002420C4F8880020680568026822F00102BA
:103A100002602068826822F060420A438260204689
:103A200002F0F8F9206805602020C4F88800002022
:103A300084F8840070BD022070BD704770477047E5
:103A40002DE9F04103680446D86919689A6840F680
:103A50000F0528424FF000054FF002060AD18706F5
:103A60007ED501F0200702F0805C57EA0C0777D082
:103A7000616F3AE1B24FDFF8CCC2174001EA0C0C9B
:103A800057EA0C0C6CD05FEAC07C0CD05FEAC15CDA
:103A900009D54FF0010CC3F820C0D4F8903043F0A2
:103AA0000103C4F89030830709D5D30707D02368F2
:103AB0001E62D4F8903043F00403C4F890304307FA
:103AC0000AD5D30708D0266804233362D4F890308F
:103AD00043F00203C4F8903003070CD501F0200333
:103AE0003B4308D0266808233362D4F8903043F073
:103AF0000803C4F8903003050BD54B0109D526689F
:103B00004FF400633362D4F8903043F02003C4F8DC
:103B10009030D4F89030002B3DD0800609D501F0CC
:103B2000200002F08051084303D0616F09B12046A4
:103B30008847D4F8900021688968490602D410F0BB
:103B4000280F2AD0204602F099FA206880684006A3
:103B50001ED52068083050E8001F21F0400100E029
:103B600021E040E80012002AF3D1D4F8800078B1B7
:103B700075498163D4F88000FDF7CDFE00280AD096
:103B8000D4F88000816B00E02046BDE8F041084792
:103B90002046FFF754FFBDE8F0812046FFF74FFFB6
:103BA000C4F89050F7E7D4F86CC02027BCF1010F9F
:103BB0007ED15FEAC06C7BD55FEAC16C78D51020FE
:103BC000186220688068400645D5D4F880100868DF
:103BD00040680004000CDED0B4F85C208242DAD9E0
:103BE000A4F85E000868006880062CD4206850E8BD
:103BF000001F21F4807140E80012002AF6D12068ED
:103C0000083050E8001F21F0010140E80012002AAE
:103C1000F5D12068083050E8001F21F0400140E84D
:103C20000012002AF5D1C4F88C70E566206850E8CF
:103C3000001F21F0100140E80012002AF6D1D4F84C
:103C40008000FDF733FE2667B4F85C00B4F85E1020
:103C5000401A81B230E0B4F85C00B4F85E10401A4B
:103C600081B2B4F85E00002895D0002993D0206876
:103C700050E8002F22F4907240E80023002BF6D188
:103C80002F4BDB432068083050E8002F1A4040E8F3
:103C9000002CBCF1000FF5D1C4F88C70E5666567A7
:103CA000206850E8002F22F0100240E8002300E0D6
:103CB00006E0002BF4D126672046FFF770FE6AE786
:103CC000C60209D5560207D54FF480101862204667
:103CD000BDE8F041FFF7B2BE03060AD501F080034C
:103CE00002F40002134304D0A16F00297FF44CAF0B
:103CF00051E7420611D54A060FD52046016851E822
:103D0000002F22F0400241E80023002BF6D1C0F83A
:103D10008870856700F0F0F93DE7020206D54A0099
:103D200004D52046BDE8F041FFF787BEC001C6D5E7
:103D30000029C4DA2046BDE8F041FFF731BE00009B
:103D40000100001020010004CD5F000810B5040040
:103D500003D0D4F8880010B107E0012010BD002086
:103D600084F88400204600F027F82420C4F8880056
:103D70002068016821F001010160A06A10B12046AD
:103D800002F06AF8204602F01FFC0128E6D0206805
:103D9000416821F4904141602068816821F02A0146
:103DA00081602068016841F0010101602046BDE8A2
:103DB000104002F0B5B8000070B598B00646142166
:103DC00011A8FCF756FC44216846FCF752FC264932
:103DD0003068884246D101200025CDE900056846BB
:103DE000FEF772FB08B1FCF7CCFE2049086E40F4E8
:103DF00080400866086E00F480401690C86C40F061
:103E00000100C864C86C11A900F0010016904FF4BD
:103E1000C06011900220CDE912050720CDE91450B1
:103E20004FF09040FDF7CCFE124C11482060192055
:103E300060601020C4E902058020C4E90405A56182
:103E4000E56120462562FDF703FE08B1FCF799FE07
:103E5000F467002211462520A662FEF79DFA252070
:103E6000FEF78CFA18B070BD003801400010024017
:103E700008000240C43F002030B4D0F88C30202B22
:103E800002D0022030BC7047A9B1A2B10023C366A2
:103E90000A4C0368A3420BD05B681B0208D5036879
:103EA00053E8004F44F0806443E80045002DF6D10C
:103EB00030BC02F0C1BC0120E4E7000000800040FB
:103EC0002DE9F0413A49884270D13A4CA1F5197573
:103ED0000026607A05F20E33295C0A2902D03B29BC
:103EE00009D059E0667203F0DBF905221946304823
:103EF00000F0BAF852E003284ED328442C4F10F8B3
:103F0000031C943744290AD06FF02F024D290BD09F
:103F10006D2914D047291DD0432930D03AE010F83C
:103F2000010C3038787035E010F8020CA0F1300147
:103F300001EB810102EB4101084438712AE010F8DD
:103F4000020CA0F1300101EB810102EB41010844B8
:103F500078711FE010F8010C312802D0302805D00C
:103F600018E003F09DF90522194604E0B81DFCF79E
:103F700061FB82B2B91D0E4800F076F80AE010F835
:103F8000010C302802D0312802D003E0FE7001E09D
:103F90000120F870667201E0401C6072607A291896
:103FA000BDE8F04101220248FFF766BFBDE8F0819D
:103FB000E8020020240000202DE9F8430446D0F850
:103FC00088001F4615460E46202802D00220BDE874
:103FD000F883AEB1A5B10020C4F890002120C4F848
:103FE00088001834FDF7CEFEA5878146E58754F892
:103FF000100C183C4FF02008B0F5805F02D003E0B1
:104000000120E4E7206910B13546002610E00025C4
:104010000EE08021204602F097FCB8B9D5B115F822
:10402000010B21688862B4F85600401EA4F85600BF
:10403000B4F856004B464FF0000200970028E8D134
:104040004FF04001204602F07FFC40B1C4F8888068
:104050000320BCE736F8020BC0F30800E1E7C4F820
:1040600088800020B3E7000070B50446D0F88800CF
:10407000202801D0022070BD39B332B32165A4F8E5
:104080005420A4F856200021C4F890102120C4F830
:104090008800E06FD8B1154BC362E36F1448186312
:1040A000E36F14485863E06F134681632068E56F3F
:1040B00000F128022846216DFDF72AFD38B11020B5
:1040C000C4F890002020C4F88800012070BD216849
:1040D000402008622068083050E8001F41F080014D
:1040E00040E80012002AF5D1002070BD31600008C0
:1040F00073600008E15F000838B500680B4988422A
:1041000012D10B4C607801280ED10A484078012862
:104110000AD109A002220068009006486946943836
:10412000FFF7A2FF0020607038BD0000003801409A
:10413000240000207C030020FFFF00007047FEE702
:104140000148FDF7A5BE0000180100200148FDF759
:10415000D3BE000018010020806A0022816B01B1EB
:104160008A63C16B01B18A6300F006BE30B50022DC
:10417000CB074FF0280406D090F84150422234EA91
:10418000050300D0F2228B0708D590F8415042F089
:10419000440234EA050301D042F0B0020B0401D519
:1041A00042F0B802102904D0202905D0402906D0B9
:1041B00007E042F0900204E042F0200201E042F009
:1041C0004002006801689143016030BD10B51E4C8B
:1041D000436B0022A34217D01C4CA34214D01C4CAA
:1041E000A34211D00B0400D5B822CB0701D042F076
:1041F000F2028B0701D542F0F402102916D02029D3
:104200001CD142F0200219E00B0400D5B822CB07E4
:1042100001D042F0F2028B0701D542F0F4021029DE
:1042200004D0202905D0402906D007E042F09002B2
:1042300004E042F0600201E042F0400200680168E0
:104240001143016010BD0000F1470008814A0008D9
:104250000149000801688A69D243920701D400220B
:104260008A6200688169C943C90703D0816941F046
:104270000101816170472DE9F041044690F8410049
:104280002821814320684FF000074FF0080304D035
:10429000C36184F84070BDE8F0818169C1F30046D4
:1042A0008169FE2202EA11458168C1F30902C168F1
:1042B000D4F80CE001F0FE014FF4004CBEF1020F07
:1042C00017D14FF0060E05F006050EEAD21E754511
:1042D0000ED1A16C491CA164A16C0229DBD1A76499
:1042E000C36184F8407031462046FDF7A7FDD2E750
:1042F0000D4661462046FFF739FF84F840702A4694
:10430000F1E7000070B5044690F84100002584F8FC
:104310004250404AE2626585626C0A436264282822
:1043200033D0292831D02A282FD048F20301204643
:10433000FFF71CFF2046FFF78DFF94F8410060282F
:1043400013D0202184F8411020688269D24392065C
:104350000BD48269D243D20605D41022C261606CAC
:1043600040F0040060642068C1616563206B2A4EE0
:10437000A16B19B1112812D0212810D0E16BE9B33B
:10438000122824D0222822D03EE003212046FFF725
:10439000EDFE282084F8410020486063E6E72068AD
:1043A0000168490403D5016821F480410160A06BD4
:1043B000FDF7EDFA012827D0A06B866384F8405002
:1043C000A06BFDF7A8FA002823D0A06B18E02068A6
:1043D0000168090403D5016821F400410160E06B24
:1043E000FDF7D5FA01280FD0E06B866384F84050C2
:1043F000E06BFDF790FA00280BD000E004E0E06BE2
:10440000816BBDE8704008472046BDE8704000F071
:10441000B3BC70BD0000FFFF59410008794B000894
:1044200070B504461648E06200252563202084F814
:10443000410084F84250C8436563400711D42068A6
:10444000406A616A0870606A401C6062208D40B1F9
:10445000401E2085608D401E6085606C40F0040029
:10446000606448F203012046FFF780FE21681020B7
:10447000C86184F840502046FDF7BAFD70BD0000C9
:104480000000FFFFF8B50446006820250E46C56110
:1044900094F84100212804D094F84100222806D045
:1044A0000BE001212046FFF761FE112004E002210C
:1044B0002046FFF75BFE12202063206841682B4AEC
:1044C0001140416000272A486763E062F043C1065B
:1044D00006D422681021D161616C41F0040161644D
:1044E00094F84110602905D1400703D42068406A40
:1044F000C0B200902046FFF7ADFE606C94F841100A
:10450000602900D028B1616C2046BDE8F840FFF773
:10451000F9BE94F84100212812D094F841002228D5
:104520000DD184F84150276394F8420084F842701A
:10453000402884F84070204614D0FDF769FDF8BD8E
:1045400084F84150276394F8420084F84270402870
:1045500084F84070204602D0FDF75BFDF8BDFDF702
:104560005AFDF8BDFDF756FDF8BD000000E800FE5D
:104570000000FFFF70B50025044680F8425090F817
:1045800041102020212984F841000CD01220206302
:10459000022120466563FFF7E9FD84F8405020467C
:1045A000FDF736FD70BD11202063012120466563B3
:1045B000FFF7DCFD84F840502046FDF72AFD70BD72
:1045C0002DE9F04702680D460446D2F80080C66A1D
:1045D00090F841002027D7614FF00009212808D02A
:1045E000292806D022280BD02A2809D028280ED026
:1045F00014E048F201012046FFF7B8FD21200CE04D
:1046000048F202012046FFF7B1FD222005E048F202
:1046100003012046FFF7AAFD484620632068416851
:1046200041F40041416020684168524A11404160B4
:104630002046FFF70FFE6FEA0800410406D4216808
:104640000A6822F480420A60A16B07E0010409D4E1
:1046500021680A6822F400420A60E16B11B109681E
:1046600049686185E94349070FD4216825F00405AD
:10467000496A626A1170616A491C6162218D21B1C7
:10468000491E2185618D491E6185618D19B1616C5D
:1046900041F004016164E943DFF8DC80C90632D4EB
:1046A000C00630D4618D102051B12168C861606CA2
:1046B00040F00400606416B3B6F1807F1FD022E0A2
:1046C00094F84110282902D1B6F1007F04D094F863
:1046D0004110292905D00FE029462046FFF7A0FE0A
:1046E00011E0464508D02168C8612046FFF7B2FDB9
:1046F000204600F043F806E02168C86103E0616CE1
:104700002046FFF7FFFD4E4684F84290C4F83490EF
:10471000606C68B1616C2046FFF7F4FD94F84100CD
:10472000282815D129462046BDE8F047FFF778BE76
:10473000E06A4546A8420DD0204600F01FF8E56229
:1047400084F84170266384F840602046FDF750FCF1
:10475000BDE8F08794F8410084F841702228266370
:1047600084F84060204602D0FDF7D0FCF0E7FDF76A
:10477000B3FCEDE700E800FE0000FFFF70B5044663
:1047800000680168002584F84250C9434A0403D4F4
:10479000016821F4804104E0090403D4016821F494
:1047A0000041016094F841102820292911D094F883
:1047B00041102A290CD184F84100222020630221D3
:1047C0002046FFF7D3FC84F840502046FDF784FCD8
:1047D00070BD84F841002120206301212046FFF7AD
:1047E000C5FC84F840502046FDF790FC70BD0000E9
:1047F000F8B5044690F8400001281AD0012084F84A
:104800004000CB43DE064FF000056FEA020012D4F1
:10481000C20610D421681020C861606C40F004000A
:10482000606420212046FFF7D1FC2046FFF712FDEF
:104830005FE00220F8BD314A1E0638D4460636D461
:104840002068016821F040010160608D0028206827
:10485000406829D0C0F30901608DFF2804D9FF20EA
:1048600020854FF0807308E0608D2085E06A9042DB
:1048700001D0E36A01E04FF00073009594F828201E
:10488000204600F043FA608D218D401A608594F82F
:10489000410022282068016803D041F48041016072
:1048A00027E041F40041FAE7800117D505E05E06F4
:1048B00018D4460616D4608D20B140212046FFF75B
:1048C00021FD16E020684168890112D4E16A914215
:1048D00004D1416841F4804141600AE02046FFF77D
:1048E00049FE06E09A0604D4800602D42046FFF76B
:1048F000C9FD84F840500020F8BD00000000FFFF13
:104900002DE9F843044690F84000494D01281AD09B
:10491000012084F84000CB43DF064FF000066FEA29
:10492000020013D4C20611D421681020C861606C43
:1049300040F00400606420212046FFF747FC204639
:10494000FFF788FC70E00220BDE8F8839A0708D4DE
:10495000820706D4206D216888624FF0FF30206501
:1049600062E01A064FF0FF074FF080784FF00079B1
:104970002FD442062DD401212046FFF7F7FB10214A
:104980002046FFF723FC608DF0B1608DFF2803D92E
:1049900027853A46009633E0608D2085009636E004
:1049A000204600F0B3F9608D218D401A608594F89F
:1049B000410022282068016802D041F4804101E0D2
:1049C00041F4004101602FE040212046FFF79AFCAE
:1049D0002AE05A0621D442061FD401212046FFF7BF
:1049E000C5FB10212046FFF7F1FB94F84100222877
:1049F00000D1104D608DFF2806D927853A460095D5
:104A0000E06C434681B2CBE7608D2085009594F839
:104A10002820E06C4B4681B2C2E79A0604D4800697
:104A200002D42046FFF72EFD84F8406000208BE77B
:104A3000002000800024008010B5044600F028F912
:104A4000EA2000F002FA01F0BEF9002817D0204653
:104A500000F0FBF9002000F06DFD00F019F9EB20EB
:104A600000F0F3F901F0AFF9002808D000F0B0F938
:104A70000446002000F05EFD00F029F9204610BD3C
:104A80002DE9F041C36A044690F840000025012852
:104A90000DD0012084F84000CE43B7066FEA020033
:104AA00008D4820606D42046FFF78AFD60E0022083
:104AB000BDE8F081F20654D4C20652D442044FF04D
:104AC000100601D502042BD4E26B2AB1070403D4EB
:104AD0001268526802B90125A26B22B1400402D4C7
:104AE0001068406800B1F5B194F84100282802D15F
:104AF000B3F1007F04D094F84100292804D00FE0DE
:104B00002046FFF78DFC33E013F5803F08D0206886
:104B1000C6612046FFF79EFB2046FFF72FFE27E0E9
:104B20002068C66124E02068C661606C40F0040023
:104B3000606494F8410013B1B3F1807F18D121284B
:104B400006D0292804D0222804D02A2802D003E045
:104B5000212000E022202063616C2046FFF7D2FB79
:104B600006E0320704D4000702D42046FFF783FB97
:104B7000002084F840009BE72DE9F0410446C06A1C
:104B800094F84030012B0DD0012384F84030CB4302
:104B90009D066FEA020208D4950606D42046FFF768
:104BA0000FFD6FE00220BDE8F081384DDF064FF0C9
:104BB00080762DD4D7062BD4638D10226BB121685B
:104BC000CA61616C41F00401616408B1B04259D11D
:104BD000616C2046FFF796FB54E094F84130282B97
:104BE00002D1B0F1007F04D094F84110292904D0FB
:104BF0000BE02046FFF714FC44E0A84205D02068F3
:104C0000C2612046FFF726FB39E02068C26139E027
:104C10005F0715D4570713D4618D61B12168496AC4
:104C2000626A1170616A491C6162218D491E218589
:104C3000618D491E6185618D21BBA8421FD121E094
:104C40001D0705D4150703D42046FFF714FB19E010
:104C5000990717D4910715D4618D69B1606A2168ED
:104C600000788862606A401C6062608D401E6085CA
:104C7000208D401E208505E0B04200D010B92046AE
:104C8000FFF77CFD002084F840008CE70000FFFF68
:104C900010B500F0E5FD4FF0904401224021204680
:104CA000FDF76BF80120FCF779FF012280212046F7
:104CB000FDF763F80120FCF771FF002280212046F8
:104CC000FDF75BF8BDE810400120FCF767BF10B5A9
:104CD00000F0C6FD4FF09044002280212046FDF7F1
:104CE0004CF80120FCF75AFF012240212046FDF735
:104CF00044F80120FCF752FF012280212046FDF7F5
:104D00003CF8BDE810400120FCF748BF10B5C1F3E6
:104D1000090141EA02410068029C194321434268AB
:104D200021F000414FF4806303EA5453024C2343C3
:104D30009A430A43426010BDFF63FF0370B50C46FF
:104D40000546FFF7A5FFEA2000F07FF801F03BF8E9
:104D5000002810D0284600F078F801F034F8002838
:104D600009D0204600F071F801F02DF8002802D09B
:104D7000FFF7ADFF012070BD10B590F84120002174
:104D8000602A05D0016380F84010FDF7D1F810BD0E
:104D9000202280F84120016380F84010FDF74CF894
:104DA00010BD10B500F05CFD4FF090440122802151
:104DB0002046FCF7E2FF0120FCF7F0FE0122402133
:104DC0002046FCF7DAFFBDE810400120FCF7E6BE04
:104DD00070B54FF09046002240213046FCF7CDFFE1
:104DE0000120FCF7DBFE012280213046FCF7C5FFE5
:104DF00000F01EFD0120FCF7D1FE0025012240211C
:104E00003046FCF7BAFF0120FCF7C8FE802130468F
:104E1000FCF7AEFF10B144F0010401E004F0FE0421
:104E20000120FCF7BBFE002240213046FCF7A5FF25
:104E30000120FCF7B3FE072D01D26006040E6D1CA5
:104E4000EDB2082DDAD3204670BD70B5054600F0EE
:104E500007FD00244FF09046002240213046FCF729
:104E60008CFF0120FCF79AFE280601D5012200E004
:104E7000002280213046FCF780FF0120FCF78EFEE7
:104E8000012240213046FCF778FF0120FCF786FE26
:104E90006806641C050EE4B2082CDDD30022402114
:104EA0003046FCF76AFF0120FCF778FE01228021E2
:104EB0003046FCF762FFBDE870400120FCF76EBE93
:104EC00070B50122114D540321462846FCF755FFC9
:104ED0000120FBF74FFE0122960331462846FCF7DE
:104EE0004CFF0120FBF746FE002231462846FCF726
:104EF00044FF0120FBF73EFE002221462846FCF736
:104F00003CFFBDE870400120FBF734BE00040048C0
:104F100070B50E4C012251032046FCF72EFF0120F4
:104F2000FBF728FE4FF48045002229462046FCF777
:104F300024FF0120FBF71EFE012229462046FCF734
:104F40001CFFBDE870400120FBF714BE00040048C0
:104F500070B50122094D540321462846FCF70DFF88
:104F60000120FBF707FE002221462846FCF705FF3B
:104F7000BDE870400120FBF7FDBD000000040048C3
:104F800000EB8100006E00F0F84070478068C0F3CD
:104F9000C00070478068C0F3000070478068C0F3AD
:104FA00080007047C06810F4406F01D00020704747
:104FB00001207047042303EAD15310B51844436914
:104FC000C1F3045107248C40A3438A401343436137
:104FD00010BD00EB8100016E21F00041114301661C
:104FE0007047000030B589B020216846FBF741FBCF
:104FF0001B481A49002401604FF44031C0E90114F4
:10500000C46004250461C0E90545047744770121A3
:10501000016280F824404FF49461C1622902016367
:1050200080F83840C46380F84040FCF709F908B1C3
:1050300072B6FEE70B4800900620CDE901047F2000
:105040000594CDE9030569460548FBF7A1FD002855
:1050500001D072B6FEE709B030BD0000000100507B
:1050600098000020020030042DE9F04186B01421A0
:105070006846FBF7FEFA1F48C16C41F00101C164AC
:10508000C16C01F001010591C16C41F00201C164E4
:10509000C06C4FF0904700F0020005900022C02144
:1050A0003846FCF76AFEDFF850804FF4D046002205
:1050B00031464046FCF761FE00242020CDE9000483
:1050C000694638460294FCF77BFDC020009001251C
:1050D000CDE90154694638460394FCF771FD00960A
:1050E000CDE90154694640460394FCF769FD06B0DA
:1050F000BDE8F0810010024000040048134810B5DC
:105100001149016012494160062181600121C1609D
:105110000021016141618161C1610162FCF70AFF07
:1051200008B172B6FEE700210848FCF731FE08B16D
:1051300072B6FEE700210548FCF755FE002801D0B5
:1051400072B6FEE710BD0000007800401801002094
:10515000FFEDC02010B598B00024149415941C21C4
:105160000DA81694FBF785FA34216846FBF781FAFF
:1051700020481F49C0E900140421C0E9024104612C
:1051800044618461FEF711FA08B172B6FEE7149427
:1051900014A918481694FDF797FE08B172B6FEE7F9
:1051A00060200D900520CDE90E0410941194129406
:1051B00000220DA90F481394FEF765F908B172B6E5
:1051C000FEE700944FF40050CDE9044001940294AE
:1051D00003940694694607480C94FDF723FE08B132
:1051E00072B6FEE70348FEF7D1F818B010BD000014
:1051F000004001409C02002030B59BB0002419946F
:105200001A9417941894149415941C210DA81694AC
:10521000FBF72FFA34216846FBF72BFA3148304967
:10522000314D01604A21C0E90114297840F27D2204
:1052300011FB02F1621E02EB8101C0E9031444611B
:105240008461FDF790FE08B172B6FEE74FF480501E
:10525000179017A92348FDF747FF08B172B6FEE77C
:105260002048FEF7A2F908B172B6FEE7149415942F
:1052700014A91C481694FDF727FE08B172B6FEE784
:1052800060200D9028780EAA40000221001D82E8BF
:105290001300119412940C220DA912481394FEF7D6
:1052A000F2F808B172B6FEE700944FF40050CDE971
:1052B000044003940003CDE908400194029406944D
:1052C00007940A940B94694606480C94FDF7AAFDCE
:1052D00008B172B6FEE70348FEF758F81BB030BDC0
:1052E000002C01406C0100202400002030B58FB05C
:1052F00000240794089409940A940B940C941C219C
:1053000068460D94FBF7B5F91F484FF080411F4DDB
:1053100001604A21C0E901142978491EC0E903143B
:105320008461FDF720FE08B172B6FEE74FF48050AD
:10533000079007A91448FDF7D7FE08B172B6FEE73B
:105340001148FEF732F908B172B6FEE70B940BA9CB
:105350000D480D94FDF7B8FD08B172B6FEE7602068
:105360000090287804224008CDE9010469460648E7
:105370000494FEF788F808B172B6FEE70248FEF71B
:1053800005F80FB030BD0000B80100202400002057
:1053900030B58FB000240794089409940A940B94B4
:1053A0000C941C2168460D94FBF763F9214D2048AD
:1053B000C5E900044A20C5E902402C612846AC61D9
:1053C000FDF7D1FD08B172B6FEE74FF480500790AB
:1053D00007A91848FDF788FE08B172B6FEE7154820
:1053E000FEF7E3F808B172B6FEE70B940BA911487B
:1053F0000D94FDF769FD08B172B6FEE760200090DC
:105400002520CDE9010404200490082269460948BA
:10541000FEF739F808B172B6FEE72868C16921F0D5
:105420000801C1610348FDF7B1FF0FB030BD0000B6
:10543000000400400402002010B58EB00024079440
:10544000089409940A940B940C941C2168460D94BA
:10545000FBF70FF91D481C49C0E900144A21C0E9B7
:10546000024104618461FDF77EFD08B172B6FEE77A
:105470004FF48050079007A91448FDF735FE08B196
:1054800072B6FEE71148FEF790F808B172B6FEE773
:105490000B940BA90D480D94FDF716FD08B172B6DB
:1054A000FEE7602000902520CDE901040C2269462A
:1054B00006480494FDF7E7FF08B172B6FEE703481B
:1054C000FDF764FF0EB010BD000800405002002040
:1054D000164810B5144901601549416000218160EA
:1054E0000C22C160C0E904128161C16101624162A4
:1054F0008162FEF72BFC08B172B6FEE700210B4873
:10550000FEF775FA08B172B6FEE700210748FEF70C
:1055100048FA08B172B6FEE70448FEF721FA0028FF
:1055200001D072B6FEE710BD00380140E80200204D
:1055300020A1070070B5044600F092F94FF09045A5
:10554000002240212846FCF718FC0120FCF726FB2E
:105550000CB1002200E0012280212846FCF70DFC5E
:105560000120FCF71BFB012240212846FCF705FC2B
:105570000120FCF713FB002240212846FCF7FDFB2D
:105580000120FCF70BFB012280212846FCF7F5FBEC
:10559000BDE870400120FCF701BBFEE7FEE770B5F7
:1055A0000025002105F1B00000F033F90021084684
:1055B00000F02FF90021102000F02BF90024012128
:1055C000002000F026F9641CE4B2802CF7D36D1C97
:1055D000EDB2082DE5D370BD10B50021AE2000F06E
:1055E00018F90021402000F014F90021B02000F04B
:1055F00010F90021C82000F00CF90021812000F0F2
:1056000008F90021FF2000F004F90021A12000F09A
:1056100000F90021A62000F0FCF80021A82000F0ED
:10562000F8F800211F2000F0F4F80021D32000F04A
:10563000F0F80021084600F0ECF80021D52000F039
:10564000E8F80021F02000F0E4F80021D92000F073
:10565000E0F80021222000F0DCF80021DA2000F040
:10566000D8F80021022000F0D4F80021DB2000F05F
:10567000D0F80021492000F0CCF800218D2000F066
:10568000C8F80021142000F0C4F80021AF2000F079
:10569000C0F8BDE81040FFF782BF10B50A460446C7
:1056A000002102F1B00000F0B4F8102040EA14101C
:1056B000002100F0AEF804F00F00BDE8104000211A
:1056C00000F0A7B82DE9F05F203A0024DDF828A00B
:1056D00098460E468146D5B27F2802D98E1CA14637
:1056E000F6B2DFF8E4B05FEA0A0017D1B8F1100FA4
:1056F0003146484629D0FFF7D0FF05EB4500ABF512
:105700000A7101EB40070121385D00F088F8641C44
:10571000E4B2062CF7D3BAF1000F14D0B8F1100F91
:105720003146484630D0FFF7B8FF284905EB450021
:10573000002401EB40050121285D00F06AF8641C9B
:10574000E4B2062CF7D3BDE8F09FFFF7A6FF5F4653
:1057500004EB05100121385C00F061F8641CE4B230
:10576000082CF5D3701CC1B24846FFF796FF002401
:1057700004EB051038440121007A00F050F8641C55
:10578000E4B2082CF4D3C6E7FFF787FF00245F4696
:1057900004EB05100121385C00F03BF8641CE4B216
:1057A000082CF5D3761CF1B24846FFF776FF0024AB
:1057B00004EB051038440121007A00F02AF8641C3B
:1057C000E4B2082CF4D3BEE7727500084A730008EF
:1057D0002DE9F8431F4690460E4604460025DDF8A5
:1057E000209010E03B4631462046CDF80090FFF770
:1057F00069FF04EB5700C4B2782C02D90024B61C10
:10580000F6B26D1CEDB218F80520002AEAD1BDE809
:10581000F883C0B209B101F040B901F027B9C04323
:10582000C0B209B101F039B901F020B970470000E8
:1058300010B586B014216846FAF71BFF80200024BB
:10584000CDE900040120029069464FF09040FCF73A
:10585000B7F90248846006B010BD000000000020C7
:1058600010B586B014216846FAF703FF8020009037
:1058700011200124CDE901040020039069464FF076
:105880009040FCF79DF90248846006B010BD00000E
:10589000000000207047FCF71FBD00B593B0382111
:1058A0006846FAF7E6FE14210EA8FAF7E2FE4FF476
:1058B0000070FCF7A3FD0220C10103914021049177
:1058C0000421CDE9080100904B21CDE90A10079091
:1058D0000C900D906846FDF793F808B172B6FEE79C
:1058E0000F200E9003200F90002010901190129026
:1058F00004210EA8FCF736FF002801D072B6FEE79F
:1059000013B000BD0248016841F4700101607047A6
:1059100088ED00E010B50448FDF767FCBDE81040D5
:105920000248FDF762BC00006C0100209C020020D0
:105930000148FDF75ABC00006C0100200148FDF74A
:1059400054BC00006C0100200148FDF74EBC000073
:105950006C0100202DE9F0430268264C264D274EAD
:10596000274B4FF08049A04207D0484505D0A842B8
:1059700003D0B04201D0984203D122F070074A68A8
:105980003A43204FDFF880C0DFF88080A0420DD07E
:1059900048450BD0A84209D0B04207D0984205D064
:1059A000B84203D0604501D0404503D122F4407590
:1059B000CA682A434D6922F080022A4302608A683D
:1059C000C2620A688262A04207D0984205D0B842FB
:1059D00003D0604501D0404501D10969016301212F
:1059E00041610169C90703D0016921F00101016129
:1059F000BDE8F083002C0140000400400008004096
:105A00000034014000400140004401400048014092
:105A100010B501F01F010123046A8B409C4304620E
:105A2000036A8A401343036210BD10B5846842EADA
:105A3000032224F47F440A432243826010BD000005
:105A40008268034B1A400A4342F0070181607047A5
:105A50008FFFCFFF2DE9F043056A026A22F00102B1
:105A60000262426883691C4C25F0020523400C68E1
:105A700023F003031C438B68194E2B43174D194F1A
:105A8000DFF864C0DFF86490A84207D0B04205D0C8
:105A9000B84203D0604501D0484506D123F008083C
:105AA000CB6843EA080323F00403A84207D0B042BE
:105AB00005D0B84203D0604501D0484505D14D69B5
:105AC00022F4407215438A692A434260846149681E
:105AD00041630362BDE8F0838FFFFEFF002C0140AD
